{
  "_format": "hh-sol-artifact-1",
  "contractName": "LeapinFrogs",
  "sourceName": "contracts/LeapinFrogs.sol",
  "abi": [
    {
      "inputs": [],
      "stateMutability": "payable",
      "type": "constructor"
    },
    {
      "anonymous": false,
      "inputs": [
        {
          "indexed": true,
          "internalType": "address",
          "name": "owner",
          "type": "address"
        },
        {
          "indexed": true,
          "internalType": "address",
          "name": "approved",
          "type": "address"
        },
        {
          "indexed": true,
          "internalType": "uint256",
          "name": "tokenId",
          "type": "uint256"
        }
      ],
      "name": "Approval",
      "type": "event"
    },
    {
      "anonymous": false,
      "inputs": [
        {
          "indexed": true,
          "internalType": "address",
          "name": "owner",
          "type": "address"
        },
        {
          "indexed": true,
          "internalType": "address",
          "name": "operator",
          "type": "address"
        },
        {
          "indexed": false,
          "internalType": "bool",
          "name": "approved",
          "type": "bool"
        }
      ],
      "name": "ApprovalForAll",
      "type": "event"
    },
    {
      "anonymous": false,
      "inputs": [
        {
          "indexed": true,
          "internalType": "address",
          "name": "previousOwner",
          "type": "address"
        },
        {
          "indexed": true,
          "internalType": "address",
          "name": "newOwner",
          "type": "address"
        }
      ],
      "name": "OwnershipTransferred",
      "type": "event"
    },
    {
      "anonymous": false,
      "inputs": [
        {
          "indexed": true,
          "internalType": "address",
          "name": "from",
          "type": "address"
        },
        {
          "indexed": true,
          "internalType": "address",
          "name": "to",
          "type": "address"
        },
        {
          "indexed": true,
          "internalType": "uint256",
          "name": "tokenId",
          "type": "uint256"
        }
      ],
      "name": "Transfer",
      "type": "event"
    },
    {
      "inputs": [
        {
          "internalType": "address",
          "name": "to",
          "type": "address"
        },
        {
          "internalType": "uint256",
          "name": "tokenId",
          "type": "uint256"
        }
      ],
      "name": "approve",
      "outputs": [],
      "stateMutability": "nonpayable",
      "type": "function"
    },
    {
      "inputs": [
        {
          "internalType": "address",
          "name": "owner",
          "type": "address"
        }
      ],
      "name": "balanceOf",
      "outputs": [
        {
          "internalType": "uint256",
          "name": "",
          "type": "uint256"
        }
      ],
      "stateMutability": "view",
      "type": "function"
    },
    {
      "inputs": [
        {
          "internalType": "uint256",
          "name": "tokenId",
          "type": "uint256"
        }
      ],
      "name": "getApproved",
      "outputs": [
        {
          "internalType": "address",
          "name": "",
          "type": "address"
        }
      ],
      "stateMutability": "view",
      "type": "function"
    },
    {
      "inputs": [
        {
          "internalType": "address",
          "name": "owner",
          "type": "address"
        },
        {
          "internalType": "address",
          "name": "operator",
          "type": "address"
        }
      ],
      "name": "isApprovedForAll",
      "outputs": [
        {
          "internalType": "bool",
          "name": "",
          "type": "bool"
        }
      ],
      "stateMutability": "view",
      "type": "function"
    },
    {
      "inputs": [],
      "name": "isPublicMintEnabled",
      "outputs": [
        {
          "internalType": "bool",
          "name": "",
          "type": "bool"
        }
      ],
      "stateMutability": "view",
      "type": "function"
    },
    {
      "inputs": [],
      "name": "maxPerWallet",
      "outputs": [
        {
          "internalType": "uint256",
          "name": "",
          "type": "uint256"
        }
      ],
      "stateMutability": "view",
      "type": "function"
    },
    {
      "inputs": [],
      "name": "maxSupply",
      "outputs": [
        {
          "internalType": "uint256",
          "name": "",
          "type": "uint256"
        }
      ],
      "stateMutability": "view",
      "type": "function"
    },
    {
      "inputs": [
        {
          "internalType": "uint256",
          "name": "quantity",
          "type": "uint256"
        }
      ],
      "name": "mint",
      "outputs": [],
      "stateMutability": "payable",
      "type": "function"
    },
    {
      "inputs": [],
      "name": "mintPrice",
      "outputs": [
        {
          "internalType": "uint256",
          "name": "",
          "type": "uint256"
        }
      ],
      "stateMutability": "view",
      "type": "function"
    },
    {
      "inputs": [],
      "name": "name",
      "outputs": [
        {
          "internalType": "string",
          "name": "",
          "type": "string"
        }
      ],
      "stateMutability": "view",
      "type": "function"
    },
    {
      "inputs": [],
      "name": "owner",
      "outputs": [
        {
          "internalType": "address",
          "name": "",
          "type": "address"
        }
      ],
      "stateMutability": "view",
      "type": "function"
    },
    {
      "inputs": [
        {
          "internalType": "uint256",
          "name": "tokenId",
          "type": "uint256"
        }
      ],
      "name": "ownerOf",
      "outputs": [
        {
          "internalType": "address",
          "name": "",
          "type": "address"
        }
      ],
      "stateMutability": "view",
      "type": "function"
    },
    {
      "inputs": [],
      "name": "renounceOwnership",
      "outputs": [],
      "stateMutability": "nonpayable",
      "type": "function"
    },
    {
      "inputs": [
        {
          "internalType": "address",
          "name": "from",
          "type": "address"
        },
        {
          "internalType": "address",
          "name": "to",
          "type": "address"
        },
        {
          "internalType": "uint256",
          "name": "tokenId",
          "type": "uint256"
        }
      ],
      "name": "safeTransferFrom",
      "outputs": [],
      "stateMutability": "nonpayable",
      "type": "function"
    },
    {
      "inputs": [
        {
          "internalType": "address",
          "name": "from",
          "type": "address"
        },
        {
          "internalType": "address",
          "name": "to",
          "type": "address"
        },
        {
          "internalType": "uint256",
          "name": "tokenId",
          "type": "uint256"
        },
        {
          "internalType": "bytes",
          "name": "data",
          "type": "bytes"
        }
      ],
      "name": "safeTransferFrom",
      "outputs": [],
      "stateMutability": "nonpayable",
      "type": "function"
    },
    {
      "inputs": [
        {
          "internalType": "address",
          "name": "operator",
          "type": "address"
        },
        {
          "internalType": "bool",
          "name": "approved",
          "type": "bool"
        }
      ],
      "name": "setApprovalForAll",
      "outputs": [],
      "stateMutability": "nonpayable",
      "type": "function"
    },
    {
      "inputs": [
        {
          "internalType": "string",
          "name": "baseTokenUri_",
          "type": "string"
        }
      ],
      "name": "setBaseTokenUri",
      "outputs": [],
      "stateMutability": "nonpayable",
      "type": "function"
    },
    {
      "inputs": [
        {
          "internalType": "bool",
          "name": "isPublicMintEnabled_",
          "type": "bool"
        }
      ],
      "name": "setIsPublicMintEnabled",
      "outputs": [],
      "stateMutability": "nonpayable",
      "type": "function"
    },
    {
      "inputs": [
        {
          "internalType": "bytes4",
          "name": "interfaceId",
          "type": "bytes4"
        }
      ],
      "name": "supportsInterface",
      "outputs": [
        {
          "internalType": "bool",
          "name": "",
          "type": "bool"
        }
      ],
      "stateMutability": "view",
      "type": "function"
    },
    {
      "inputs": [],
      "name": "symbol",
      "outputs": [
        {
          "internalType": "string",
          "name": "",
          "type": "string"
        }
      ],
      "stateMutability": "view",
      "type": "function"
    },
    {
      "inputs": [
        {
          "internalType": "uint256",
          "name": "tokenId_",
          "type": "uint256"
        }
      ],
      "name": "tokenURI",
      "outputs": [
        {
          "internalType": "string",
          "name": "",
          "type": "string"
        }
      ],
      "stateMutability": "view",
      "type": "function"
    },
    {
      "inputs": [],
      "name": "totalSupply",
      "outputs": [
        {
          "internalType": "uint256",
          "name": "",
          "type": "uint256"
        }
      ],
      "stateMutability": "view",
      "type": "function"
    },
    {
      "inputs": [
        {
          "internalType": "address",
          "name": "from",
          "type": "address"
        },
        {
          "internalType": "address",
          "name": "to",
          "type": "address"
        },
        {
          "internalType": "uint256",
          "name": "tokenId",
          "type": "uint256"
        }
      ],
      "name": "transferFrom",
      "outputs": [],
      "stateMutability": "nonpayable",
      "type": "function"
    },
    {
      "inputs": [
        {
          "internalType": "address",
          "name": "newOwner",
          "type": "address"
        }
      ],
      "name": "transferOwnership",
      "outputs": [],
      "stateMutability": "nonpayable",
      "type": "function"
    },
    {
      "inputs": [
        {
          "internalType": "address",
          "name": "",
          "type": "address"
        }
      ],
      "name": "walletMints",
      "outputs": [
        {
          "internalType": "uint256",
          "name": "",
          "type": "uint256"
        }
      ],
      "stateMutability": "view",
      "type": "function"
    },
    {
      "inputs": [],
      "name": "withdraw",
      "outputs": [],
      "stateMutability": "nonpayable",
      "type": "function"
    },
    {
      "inputs": [],
      "name": "withdrawWallet",
      "outputs": [
        {
          "internalType": "address payable",
          "name": "",
          "type": "address"
        }
      ],
      "stateMutability": "view",
      "type": "function"
    }
  ],
  "bytecode": "0x60806040526040518060400160405280600b81526020017f4c656170696e46726f67730000000000000000000000000000000000000000008152506040518060400160405280600381526020017f4c5046000000000000000000000000000000000000000000000000000000000081525081600090816200008191906200046d565b5080600190816200009391906200046d565b505050620000b6620000aa6200012560201b60201c565b6200012d60201b60201c565b6801158e460913d00000600781905550600060088190555060656009819055506005600a8190555033600d60006101000a81548173ffffffffffffffffffffffffffffffffffffffff021916908373ffffffffffffffffffffffffffffffffffffffff16021790555062000554565b600033905090565b6000600660009054906101000a900473ffffffffffffffffffffffffffffffffffffffff16905081600660006101000a81548173ffffffffffffffffffffffffffffffffffffffff021916908373ffffffffffffffffffffffffffffffffffffffff1602179055508173ffffffffffffffffffffffffffffffffffffffff168173ffffffffffffffffffffffffffffffffffffffff167f8be0079c531659141344cd1fd0a4f28419497f9722a3daafe3b4186f6b6457e060405160405180910390a35050565b600081519050919050565b7f4e487b7100000000000000000000000000000000000000000000000000000000600052604160045260246000fd5b7f4e487b7100000000000000000000000000000000000000000000000000000000600052602260045260246000fd5b600060028204905060018216806200027557607f821691505b6020821081036200028b576200028a6200022d565b5b50919050565b60008190508160005260206000209050919050565b60006020601f8301049050919050565b600082821b905092915050565b600060088302620002f57fffffffffffffffffffffffffffffffffffffffffffffffffffffffffffffffff82620002b6565b620003018683620002b6565b95508019841693508086168417925050509392505050565b6000819050919050565b6000819050919050565b60006200034e62000348620003428462000319565b62000323565b62000319565b9050919050565b6000819050919050565b6200036a836200032d565b62000382620003798262000355565b848454620002c3565b825550505050565b600090565b620003996200038a565b620003a68184846200035f565b505050565b5b81811015620003ce57620003c26000826200038f565b600181019050620003ac565b5050565b601f8211156200041d57620003e78162000291565b620003f284620002a6565b8101602085101562000402578190505b6200041a6200041185620002a6565b830182620003ab565b50505b505050565b600082821c905092915050565b6000620004426000198460080262000422565b1980831691505092915050565b60006200045d83836200042f565b9150826002028217905092915050565b6200047882620001f3565b67ffffffffffffffff811115620004945762000493620001fe565b5b620004a082546200025c565b620004ad828285620003d2565b600060209050601f831160018114620004e55760008415620004d0578287015190505b620004dc85826200044f565b8655506200054c565b601f198416620004f58662000291565b60005b828110156200051f57848901518255600182019150602085019450602081019050620004f8565b868310156200053f57848901516200053b601f8916826200042f565b8355505b6001600288020188555050505b505050505050565b6136b480620005646000396000f3fe60806040526004361061019c5760003560e01c806370a08231116100ec578063a22cb4651161008a578063d5abeb0111610064578063d5abeb0114610593578063e985e9c5146105be578063f0293fd3146105fb578063f2fde38b146106385761019c565b8063a22cb46514610504578063b88d4fde1461052d578063c87b56dd146105565761019c565b80638da5cb5b116100c65780638da5cb5b1461046957806395652cfa1461049457806395d89b41146104bd578063a0712d68146104e85761019c565b806370a08231146103ea578063715018a61461042757806385d178f41461043e5761019c565b80632373ac221161015957806342842e0e1161013357806342842e0e1461032e578063453c2310146103575780636352211e146103825780636817c76c146103bf5761019c565b80632373ac22146102c557806323b872dd146102ee5780633ccfd60b146103175761019c565b80630116bc2d146101a157806301ffc9a7146101cc57806306fdde0314610209578063081812fc14610234578063095ea7b31461027157806318160ddd1461029a575b600080fd5b3480156101ad57600080fd5b506101b6610661565b6040516101c39190612086565b60405180910390f35b3480156101d857600080fd5b506101f360048036038101906101ee919061210d565b610674565b6040516102009190612086565b60405180910390f35b34801561021557600080fd5b5061021e610756565b60405161022b91906121ca565b60405180910390f35b34801561024057600080fd5b5061025b60048036038101906102569190612222565b6107e8565b6040516102689190612290565b60405180910390f35b34801561027d57600080fd5b50610298600480360381019061029391906122d7565b61082e565b005b3480156102a657600080fd5b506102af610945565b6040516102bc9190612326565b60405180910390f35b3480156102d157600080fd5b506102ec60048036038101906102e7919061236d565b61094b565b005b3480156102fa57600080fd5b506103156004803603810190610310919061239a565b610970565b005b34801561032357600080fd5b5061032c6109d0565b005b34801561033a57600080fd5b506103556004803603810190610350919061239a565b610aa9565b005b34801561036357600080fd5b5061036c610ac9565b6040516103799190612326565b60405180910390f35b34801561038e57600080fd5b506103a960048036038101906103a49190612222565b610acf565b6040516103b69190612290565b60405180910390f35b3480156103cb57600080fd5b506103d4610b55565b6040516103e19190612326565b60405180910390f35b3480156103f657600080fd5b50610411600480360381019061040c91906123ed565b610b5b565b60405161041e9190612326565b60405180910390f35b34801561043357600080fd5b5061043c610c12565b005b34801561044a57600080fd5b50610453610c26565b604051610460919061243b565b60405180910390f35b34801561047557600080fd5b5061047e610c4c565b60405161048b9190612290565b60405180910390f35b3480156104a057600080fd5b506104bb60048036038101906104b691906124bb565b610c76565b005b3480156104c957600080fd5b506104d2610c94565b6040516104df91906121ca565b60405180910390f35b61050260048036038101906104fd9190612222565b610d26565b005b34801561051057600080fd5b5061052b60048036038101906105269190612508565b610f47565b005b34801561053957600080fd5b50610554600480360381019061054f9190612678565b610f5d565b005b34801561056257600080fd5b5061057d60048036038101906105789190612222565b610fbf565b60405161058a91906121ca565b60405180910390f35b34801561059f57600080fd5b506105a861103b565b6040516105b59190612326565b60405180910390f35b3480156105ca57600080fd5b506105e560048036038101906105e091906126fb565b611041565b6040516105f29190612086565b60405180910390f35b34801561060757600080fd5b50610622600480360381019061061d91906123ed565b6110d5565b60405161062f9190612326565b60405180910390f35b34801561064457600080fd5b5061065f600480360381019061065a91906123ed565b6110ed565b005b600b60009054906101000a900460ff1681565b60007f80ac58cd000000000000000000000000000000000000000000000000000000007bffffffffffffffffffffffffffffffffffffffffffffffffffffffff1916827bffffffffffffffffffffffffffffffffffffffffffffffffffffffff1916148061073f57507f5b5e139f000000000000000000000000000000000000000000000000000000007bffffffffffffffffffffffffffffffffffffffffffffffffffffffff1916827bffffffffffffffffffffffffffffffffffffffffffffffffffffffff1916145b8061074f575061074e82611170565b5b9050919050565b6060600080546107659061276a565b80601f01602080910402602001604051908101604052809291908181526020018280546107919061276a565b80156107de5780601f106107b3576101008083540402835291602001916107de565b820191906000526020600020905b8154815290600101906020018083116107c157829003601f168201915b5050505050905090565b60006107f3826111da565b6004600083815260200190815260200160002060009054906101000a900473ffffffffffffffffffffffffffffffffffffffff169050919050565b600061083982610acf565b90508073ffffffffffffffffffffffffffffffffffffffff168373ffffffffffffffffffffffffffffffffffffffff16036108a9576040517f08c379a00000000000000000000000000000000000000000000000000000000081526004016108a09061280d565b60405180910390fd5b8073ffffffffffffffffffffffffffffffffffffffff166108c8611225565b73ffffffffffffffffffffffffffffffffffffffff1614806108f757506108f6816108f1611225565b611041565b5b610936576040517f08c379a000000000000000000000000000000000000000000000000000000000815260040161092d9061289f565b60405180910390fd5b610940838361122d565b505050565b60085481565b6109536112e6565b80600b60006101000a81548160ff02191690831515021790555050565b61098161097b611225565b82611364565b6109c0576040517f08c379a00000000000000000000000000000000000000000000000000000000081526004016109b790612931565b60405180910390fd5b6109cb8383836113f9565b505050565b6109d86112e6565b6000600d60009054906101000a900473ffffffffffffffffffffffffffffffffffffffff1673ffffffffffffffffffffffffffffffffffffffff1647604051610a2090612982565b60006040518083038185875af1925050503d8060008114610a5d576040519150601f19603f3d011682016040523d82523d6000602084013e610a62565b606091505b5050905080610aa6576040517f08c379a0000000000000000000000000000000000000000000000000000000008152600401610a9d906129e3565b60405180910390fd5b50565b610ac483838360405180602001604052806000815250610f5d565b505050565b600a5481565b600080610adb836116f2565b9050600073ffffffffffffffffffffffffffffffffffffffff168173ffffffffffffffffffffffffffffffffffffffff1603610b4c576040517f08c379a0000000000000000000000000000000000000000000000000000000008152600401610b4390612a4f565b60405180910390fd5b80915050919050565b60075481565b60008073ffffffffffffffffffffffffffffffffffffffff168273ffffffffffffffffffffffffffffffffffffffff1603610bcb576040517f08c379a0000000000000000000000000000000000000000000000000000000008152600401610bc290612ae1565b60405180910390fd5b600360008373ffffffffffffffffffffffffffffffffffffffff1673ffffffffffffffffffffffffffffffffffffffff168152602001908152602001600020549050919050565b610c1a6112e6565b610c24600061172f565b565b600d60009054906101000a900473ffffffffffffffffffffffffffffffffffffffff1681565b6000600660009054906101000a900473ffffffffffffffffffffffffffffffffffffffff16905090565b610c7e6112e6565b8181600c9182610c8f929190612cb8565b505050565b606060018054610ca39061276a565b80601f0160208091040260200160405190810160405280929190818152602001828054610ccf9061276a565b8015610d1c5780601f10610cf157610100808354040283529160200191610d1c565b820191906000526020600020905b815481529060010190602001808311610cff57829003601f168201915b5050505050905090565b600b60009054906101000a900460ff16610d75576040517f08c379a0000000000000000000000000000000000000000000000000000000008152600401610d6c90612dd4565b60405180910390fd5b60075481610d839190612e23565b3414610dc4576040517f08c379a0000000000000000000000000000000000000000000000000000000008152600401610dbb90612eb1565b60405180910390fd5b60095481600854610dd59190612ed1565b1115610e16576040517f08c379a0000000000000000000000000000000000000000000000000000000008152600401610e0d90612f51565b60405180910390fd5b600a5481600e60003373ffffffffffffffffffffffffffffffffffffffff1673ffffffffffffffffffffffffffffffffffffffff16815260200190815260200160002054610e649190612ed1565b1115610ea5576040517f08c379a0000000000000000000000000000000000000000000000000000000008152600401610e9c90612fbd565b60405180910390fd5b60005b81811015610eed576000600854905060086000815480929190610eca90612fdd565b9190505550610ed933826117f5565b508080610ee590612fdd565b915050610ea8565b5080600e60003373ffffffffffffffffffffffffffffffffffffffff1673ffffffffffffffffffffffffffffffffffffffff1681526020019081526020016000206000828254610f3d9190612ed1565b9250508190555050565b610f59610f52611225565b8383611813565b5050565b610f6e610f68611225565b83611364565b610fad576040517f08c379a0000000000000000000000000000000000000000000000000000000008152600401610fa490612931565b60405180910390fd5b610fb98484848461197f565b50505050565b6060610fca826119db565b611009576040517f08c379a000000000000000000000000000000000000000000000000000000000815260040161100090613071565b60405180910390fd5b600c61101483611a1c565b604051602001611025929190613150565b6040516020818303038152906040529050919050565b60095481565b6000600560008473ffffffffffffffffffffffffffffffffffffffff1673ffffffffffffffffffffffffffffffffffffffff16815260200190815260200160002060008373ffffffffffffffffffffffffffffffffffffffff1673ffffffffffffffffffffffffffffffffffffffff16815260200190815260200160002060009054906101000a900460ff16905092915050565b600e6020528060005260406000206000915090505481565b6110f56112e6565b600073ffffffffffffffffffffffffffffffffffffffff168173ffffffffffffffffffffffffffffffffffffffff1603611164576040517f08c379a000000000000000000000000000000000000000000000000000000000815260040161115b906131e6565b60405180910390fd5b61116d8161172f565b50565b60007f01ffc9a7000000000000000000000000000000000000000000000000000000007bffffffffffffffffffffffffffffffffffffffffffffffffffffffff1916827bffffffffffffffffffffffffffffffffffffffffffffffffffffffff1916149050919050565b6111e3816119db565b611222576040517f08c379a000000000000000000000000000000000000000000000000000000000815260040161121990612a4f565b60405180910390fd5b50565b600033905090565b816004600083815260200190815260200160002060006101000a81548173ffffffffffffffffffffffffffffffffffffffff021916908373ffffffffffffffffffffffffffffffffffffffff160217905550808273ffffffffffffffffffffffffffffffffffffffff166112a083610acf565b73ffffffffffffffffffffffffffffffffffffffff167f8c5be1e5ebec7d5bd14f71427d1e84f3dd0314c0f7b2291e5b200ac8c7c3b92560405160405180910390a45050565b6112ee611225565b73ffffffffffffffffffffffffffffffffffffffff1661130c610c4c565b73ffffffffffffffffffffffffffffffffffffffff1614611362576040517f08c379a000000000000000000000000000000000000000000000000000000000815260040161135990613252565b60405180910390fd5b565b60008061137083610acf565b90508073ffffffffffffffffffffffffffffffffffffffff168473ffffffffffffffffffffffffffffffffffffffff1614806113b257506113b18185611041565b5b806113f057508373ffffffffffffffffffffffffffffffffffffffff166113d8846107e8565b73ffffffffffffffffffffffffffffffffffffffff16145b91505092915050565b8273ffffffffffffffffffffffffffffffffffffffff1661141982610acf565b73ffffffffffffffffffffffffffffffffffffffff161461146f576040517f08c379a0000000000000000000000000000000000000000000000000000000008152600401611466906132e4565b60405180910390fd5b600073ffffffffffffffffffffffffffffffffffffffff168273ffffffffffffffffffffffffffffffffffffffff16036114de576040517f08c379a00000000000000000000000000000000000000000000000000000000081526004016114d590613376565b60405180910390fd5b6114eb8383836001611aea565b8273ffffffffffffffffffffffffffffffffffffffff1661150b82610acf565b73ffffffffffffffffffffffffffffffffffffffff1614611561576040517f08c379a0000000000000000000000000000000000000000000000000000000008152600401611558906132e4565b60405180910390fd5b6004600082815260200190815260200160002060006101000a81549073ffffffffffffffffffffffffffffffffffffffff02191690556001600360008573ffffffffffffffffffffffffffffffffffffffff1673ffffffffffffffffffffffffffffffffffffffff168152602001908152602001600020600082825403925050819055506001600360008473ffffffffffffffffffffffffffffffffffffffff1673ffffffffffffffffffffffffffffffffffffffff16815260200190815260200160002060008282540192505081905550816002600083815260200190815260200160002060006101000a81548173ffffffffffffffffffffffffffffffffffffffff021916908373ffffffffffffffffffffffffffffffffffffffff160217905550808273ffffffffffffffffffffffffffffffffffffffff168473ffffffffffffffffffffffffffffffffffffffff167fddf252ad1be2c89b69c2b068fc378daa952ba7f163c4a11628f55a4df523b3ef60405160405180910390a46116ed8383836001611af0565b505050565b60006002600083815260200190815260200160002060009054906101000a900473ffffffffffffffffffffffffffffffffffffffff169050919050565b6000600660009054906101000a900473ffffffffffffffffffffffffffffffffffffffff16905081600660006101000a81548173ffffffffffffffffffffffffffffffffffffffff021916908373ffffffffffffffffffffffffffffffffffffffff1602179055508173ffffffffffffffffffffffffffffffffffffffff168173ffffffffffffffffffffffffffffffffffffffff167f8be0079c531659141344cd1fd0a4f28419497f9722a3daafe3b4186f6b6457e060405160405180910390a35050565b61180f828260405180602001604052806000815250611af6565b5050565b8173ffffffffffffffffffffffffffffffffffffffff168373ffffffffffffffffffffffffffffffffffffffff1603611881576040517f08c379a0000000000000000000000000000000000000000000000000000000008152600401611878906133e2565b60405180910390fd5b80600560008573ffffffffffffffffffffffffffffffffffffffff1673ffffffffffffffffffffffffffffffffffffffff16815260200190815260200160002060008473ffffffffffffffffffffffffffffffffffffffff1673ffffffffffffffffffffffffffffffffffffffff16815260200190815260200160002060006101000a81548160ff0219169083151502179055508173ffffffffffffffffffffffffffffffffffffffff168373ffffffffffffffffffffffffffffffffffffffff167f17307eab39ab6107e8899845ad3d59bd9653f200f220920489ca2b5937696c31836040516119729190612086565b60405180910390a3505050565b61198a8484846113f9565b61199684848484611b51565b6119d5576040517f08c379a00000000000000000000000000000000000000000000000000000000081526004016119cc90613474565b60405180910390fd5b50505050565b60008073ffffffffffffffffffffffffffffffffffffffff166119fd836116f2565b73ffffffffffffffffffffffffffffffffffffffff1614159050919050565b606060006001611a2b84611cd8565b01905060008167ffffffffffffffff811115611a4a57611a4961254d565b5b6040519080825280601f01601f191660200182016040528015611a7c5781602001600182028036833780820191505090505b509050600082602001820190505b600115611adf578080600190039150507f3031323334353637383961626364656600000000000000000000000000000000600a86061a8153600a8581611ad357611ad2613494565b5b04945060008503611a8a575b819350505050919050565b50505050565b50505050565b611b008383611e2b565b611b0d6000848484611b51565b611b4c576040517f08c379a0000000000000000000000000000000000000000000000000000000008152600401611b4390613474565b60405180910390fd5b505050565b6000611b728473ffffffffffffffffffffffffffffffffffffffff16612048565b15611ccb578373ffffffffffffffffffffffffffffffffffffffff1663150b7a02611b9b611225565b8786866040518563ffffffff1660e01b8152600401611bbd9493929190613518565b6020604051808303816000875af1925050508015611bf957506040513d601f19601f82011682018060405250810190611bf69190613579565b60015b611c7b573d8060008114611c29576040519150601f19603f3d011682016040523d82523d6000602084013e611c2e565b606091505b506000815103611c73576040517f08c379a0000000000000000000000000000000000000000000000000000000008152600401611c6a90613474565b60405180910390fd5b805181602001fd5b63150b7a0260e01b7bffffffffffffffffffffffffffffffffffffffffffffffffffffffff1916817bffffffffffffffffffffffffffffffffffffffffffffffffffffffff191614915050611cd0565b600190505b949350505050565b600080600090507a184f03e93ff9f4daa797ed6e38ed64bf6a1f0100000000000000008310611d36577a184f03e93ff9f4daa797ed6e38ed64bf6a1f0100000000000000008381611d2c57611d2b613494565b5b0492506040810190505b6d04ee2d6d415b85acef81000000008310611d73576d04ee2d6d415b85acef81000000008381611d6957611d68613494565b5b0492506020810190505b662386f26fc100008310611da257662386f26fc100008381611d9857611d97613494565b5b0492506010810190505b6305f5e1008310611dcb576305f5e1008381611dc157611dc0613494565b5b0492506008810190505b6127108310611df0576127108381611de657611de5613494565b5b0492506004810190505b60648310611e135760648381611e0957611e08613494565b5b0492506002810190505b600a8310611e22576001810190505b80915050919050565b600073ffffffffffffffffffffffffffffffffffffffff168273ffffffffffffffffffffffffffffffffffffffff1603611e9a576040517f08c379a0000000000000000000000000000000000000000000000000000000008152600401611e91906135f2565b60405180910390fd5b611ea3816119db565b15611ee3576040517f08c379a0000000000000000000000000000000000000000000000000000000008152600401611eda9061365e565b60405180910390fd5b611ef1600083836001611aea565b611efa816119db565b15611f3a576040517f08c379a0000000000000000000000000000000000000000000000000000000008152600401611f319061365e565b60405180910390fd5b6001600360008473ffffffffffffffffffffffffffffffffffffffff1673ffffffffffffffffffffffffffffffffffffffff16815260200190815260200160002060008282540192505081905550816002600083815260200190815260200160002060006101000a81548173ffffffffffffffffffffffffffffffffffffffff021916908373ffffffffffffffffffffffffffffffffffffffff160217905550808273ffffffffffffffffffffffffffffffffffffffff16600073ffffffffffffffffffffffffffffffffffffffff167fddf252ad1be2c89b69c2b068fc378daa952ba7f163c4a11628f55a4df523b3ef60405160405180910390a4612044600083836001611af0565b5050565b6000808273ffffffffffffffffffffffffffffffffffffffff163b119050919050565b60008115159050919050565b6120808161206b565b82525050565b600060208201905061209b6000830184612077565b92915050565b6000604051905090565b600080fd5b600080fd5b60007fffffffff0000000000000000000000000000000000000000000000000000000082169050919050565b6120ea816120b5565b81146120f557600080fd5b50565b600081359050612107816120e1565b92915050565b600060208284031215612123576121226120ab565b5b6000612131848285016120f8565b91505092915050565b600081519050919050565b600082825260208201905092915050565b60005b83811015612174578082015181840152602081019050612159565b60008484015250505050565b6000601f19601f8301169050919050565b600061219c8261213a565b6121a68185612145565b93506121b6818560208601612156565b6121bf81612180565b840191505092915050565b600060208201905081810360008301526121e48184612191565b905092915050565b6000819050919050565b6121ff816121ec565b811461220a57600080fd5b50565b60008135905061221c816121f6565b92915050565b600060208284031215612238576122376120ab565b5b60006122468482850161220d565b91505092915050565b600073ffffffffffffffffffffffffffffffffffffffff82169050919050565b600061227a8261224f565b9050919050565b61228a8161226f565b82525050565b60006020820190506122a56000830184612281565b92915050565b6122b48161226f565b81146122bf57600080fd5b50565b6000813590506122d1816122ab565b92915050565b600080604083850312156122ee576122ed6120ab565b5b60006122fc858286016122c2565b925050602061230d8582860161220d565b9150509250929050565b612320816121ec565b82525050565b600060208201905061233b6000830184612317565b92915050565b61234a8161206b565b811461235557600080fd5b50565b60008135905061236781612341565b92915050565b600060208284031215612383576123826120ab565b5b600061239184828501612358565b91505092915050565b6000806000606084860312156123b3576123b26120ab565b5b60006123c1868287016122c2565b93505060206123d2868287016122c2565b92505060406123e38682870161220d565b9150509250925092565b600060208284031215612403576124026120ab565b5b6000612411848285016122c2565b91505092915050565b60006124258261224f565b9050919050565b6124358161241a565b82525050565b6000602082019050612450600083018461242c565b92915050565b600080fd5b600080fd5b600080fd5b60008083601f84011261247b5761247a612456565b5b8235905067ffffffffffffffff8111156124985761249761245b565b5b6020830191508360018202830111156124b4576124b3612460565b5b9250929050565b600080602083850312156124d2576124d16120ab565b5b600083013567ffffffffffffffff8111156124f0576124ef6120b0565b5b6124fc85828601612465565b92509250509250929050565b6000806040838503121561251f5761251e6120ab565b5b600061252d858286016122c2565b925050602061253e85828601612358565b9150509250929050565b600080fd5b7f4e487b7100000000000000000000000000000000000000000000000000000000600052604160045260246000fd5b61258582612180565b810181811067ffffffffffffffff821117156125a4576125a361254d565b5b80604052505050565b60006125b76120a1565b90506125c3828261257c565b919050565b600067ffffffffffffffff8211156125e3576125e261254d565b5b6125ec82612180565b9050602081019050919050565b82818337600083830152505050565b600061261b612616846125c8565b6125ad565b90508281526020810184848401111561263757612636612548565b5b6126428482856125f9565b509392505050565b600082601f83011261265f5761265e612456565b5b813561266f848260208601612608565b91505092915050565b60008060008060808587031215612692576126916120ab565b5b60006126a0878288016122c2565b94505060206126b1878288016122c2565b93505060406126c28782880161220d565b925050606085013567ffffffffffffffff8111156126e3576126e26120b0565b5b6126ef8782880161264a565b91505092959194509250565b60008060408385031215612712576127116120ab565b5b6000612720858286016122c2565b9250506020612731858286016122c2565b9150509250929050565b7f4e487b7100000000000000000000000000000000000000000000000000000000600052602260045260246000fd5b6000600282049050600182168061278257607f821691505b6020821081036127955761279461273b565b5b50919050565b7f4552433732313a20617070726f76616c20746f2063757272656e74206f776e6560008201527f7200000000000000000000000000000000000000000000000000000000000000602082015250565b60006127f7602183612145565b91506128028261279b565b604082019050919050565b60006020820190508181036000830152612826816127ea565b9050919050565b7f4552433732313a20617070726f76652063616c6c6572206973206e6f7420746f60008201527f6b656e206f776e6572206f7220617070726f76656420666f7220616c6c000000602082015250565b6000612889603d83612145565b91506128948261282d565b604082019050919050565b600060208201905081810360008301526128b88161287c565b9050919050565b7f4552433732313a2063616c6c6572206973206e6f7420746f6b656e206f776e6560008201527f72206f7220617070726f76656400000000000000000000000000000000000000602082015250565b600061291b602d83612145565b9150612926826128bf565b604082019050919050565b6000602082019050818103600083015261294a8161290e565b9050919050565b600081905092915050565b50565b600061296c600083612951565b91506129778261295c565b600082019050919050565b600061298d8261295f565b9150819050919050565b7f7769746864726177206661696c65640000000000000000000000000000000000600082015250565b60006129cd600f83612145565b91506129d882612997565b602082019050919050565b600060208201905081810360008301526129fc816129c0565b9050919050565b7f4552433732313a20696e76616c696420746f6b656e2049440000000000000000600082015250565b6000612a39601883612145565b9150612a4482612a03565b602082019050919050565b60006020820190508181036000830152612a6881612a2c565b9050919050565b7f4552433732313a2061646472657373207a65726f206973206e6f74206120766160008201527f6c6964206f776e65720000000000000000000000000000000000000000000000602082015250565b6000612acb602983612145565b9150612ad682612a6f565b604082019050919050565b60006020820190508181036000830152612afa81612abe565b9050919050565b600082905092915050565b60008190508160005260206000209050919050565b60006020601f8301049050919050565b600082821b905092915050565b600060088302612b6e7fffffffffffffffffffffffffffffffffffffffffffffffffffffffffffffffff82612b31565b612b788683612b31565b95508019841693508086168417925050509392505050565b6000819050919050565b6000612bb5612bb0612bab846121ec565b612b90565b6121ec565b9050919050565b6000819050919050565b612bcf83612b9a565b612be3612bdb82612bbc565b848454612b3e565b825550505050565b600090565b612bf8612beb565b612c03818484612bc6565b505050565b5b81811015612c2757612c1c600082612bf0565b600181019050612c09565b5050565b601f821115612c6c57612c3d81612b0c565b612c4684612b21565b81016020851015612c55578190505b612c69612c6185612b21565b830182612c08565b50505b505050565b600082821c905092915050565b6000612c8f60001984600802612c71565b1980831691505092915050565b6000612ca88383612c7e565b9150826002028217905092915050565b612cc28383612b01565b67ffffffffffffffff811115612cdb57612cda61254d565b5b612ce5825461276a565b612cf0828285612c2b565b6000601f831160018114612d1f5760008415612d0d578287013590505b612d178582612c9c565b865550612d7f565b601f198416612d2d86612b0c565b60005b82811015612d5557848901358255600182019150602085019450602081019050612d30565b86831015612d725784890135612d6e601f891682612c7e565b8355505b6001600288020188555050505b50505050505050565b7f6d696e74696e67206e6f7420656e61626c656400000000000000000000000000600082015250565b6000612dbe601383612145565b9150612dc982612d88565b602082019050919050565b60006020820190508181036000830152612ded81612db1565b9050919050565b7f4e487b7100000000000000000000000000000000000000000000000000000000600052601160045260246000fd5b6000612e2e826121ec565b9150612e39836121ec565b9250828202612e47816121ec565b91508282048414831517612e5e57612e5d612df4565b5b5092915050565b7f77726f6e67206d696e742076616c756500000000000000000000000000000000600082015250565b6000612e9b601083612145565b9150612ea682612e65565b602082019050919050565b60006020820190508181036000830152612eca81612e8e565b9050919050565b6000612edc826121ec565b9150612ee7836121ec565b9250828201905080821115612eff57612efe612df4565b5b92915050565b7f736f6c64206f7574000000000000000000000000000000000000000000000000600082015250565b6000612f3b600883612145565b9150612f4682612f05565b602082019050919050565b60006020820190508181036000830152612f6a81612f2e565b9050919050565b7f657863656564206d61782077616c6c6574000000000000000000000000000000600082015250565b6000612fa7601183612145565b9150612fb282612f71565b602082019050919050565b60006020820190508181036000830152612fd681612f9a565b9050919050565b6000612fe8826121ec565b91507fffffffffffffffffffffffffffffffffffffffffffffffffffffffffffffffff820361301a57613019612df4565b5b600182019050919050565b7f546f6b656e20646f6573206e6f74206578697374210000000000000000000000600082015250565b600061305b601583612145565b915061306682613025565b602082019050919050565b6000602082019050818103600083015261308a8161304e565b9050919050565b600081905092915050565b600081546130a98161276a565b6130b38186613091565b945060018216600081146130ce57600181146130e357613116565b60ff1983168652811515820286019350613116565b6130ec85612b0c565b60005b8381101561310e578154818901526001820191506020810190506130ef565b838801955050505b50505092915050565b600061312a8261213a565b6131348185613091565b9350613144818560208601612156565b80840191505092915050565b600061315c828561309c565b9150613168828461311f565b91508190509392505050565b7f4f776e61626c653a206e6577206f776e657220697320746865207a65726f206160008201527f6464726573730000000000000000000000000000000000000000000000000000602082015250565b60006131d0602683612145565b91506131db82613174565b604082019050919050565b600060208201905081810360008301526131ff816131c3565b9050919050565b7f4f776e61626c653a2063616c6c6572206973206e6f7420746865206f776e6572600082015250565b600061323c602083612145565b915061324782613206565b602082019050919050565b6000602082019050818103600083015261326b8161322f565b9050919050565b7f4552433732313a207472616e736665722066726f6d20696e636f72726563742060008201527f6f776e6572000000000000000000000000000000000000000000000000000000602082015250565b60006132ce602583612145565b91506132d982613272565b604082019050919050565b600060208201905081810360008301526132fd816132c1565b9050919050565b7f4552433732313a207472616e7366657220746f20746865207a65726f2061646460008201527f7265737300000000000000000000000000000000000000000000000000000000602082015250565b6000613360602483612145565b915061336b82613304565b604082019050919050565b6000602082019050818103600083015261338f81613353565b9050919050565b7f4552433732313a20617070726f766520746f2063616c6c657200000000000000600082015250565b60006133cc601983612145565b91506133d782613396565b602082019050919050565b600060208201905081810360008301526133fb816133bf565b9050919050565b7f4552433732313a207472616e7366657220746f206e6f6e20455243373231526560008201527f63656976657220696d706c656d656e7465720000000000000000000000000000602082015250565b600061345e603283612145565b915061346982613402565b604082019050919050565b6000602082019050818103600083015261348d81613451565b9050919050565b7f4e487b7100000000000000000000000000000000000000000000000000000000600052601260045260246000fd5b600081519050919050565b600082825260208201905092915050565b60006134ea826134c3565b6134f481856134ce565b9350613504818560208601612156565b61350d81612180565b840191505092915050565b600060808201905061352d6000830187612281565b61353a6020830186612281565b6135476040830185612317565b818103606083015261355981846134df565b905095945050505050565b600081519050613573816120e1565b92915050565b60006020828403121561358f5761358e6120ab565b5b600061359d84828501613564565b91505092915050565b7f4552433732313a206d696e7420746f20746865207a65726f2061646472657373600082015250565b60006135dc602083612145565b91506135e7826135a6565b602082019050919050565b6000602082019050818103600083015261360b816135cf565b9050919050565b7f4552433732313a20746f6b656e20616c7265616479206d696e74656400000000600082015250565b6000613648601c83612145565b915061365382613612565b602082019050919050565b600060208201905081810360008301526136778161363b565b905091905056fea26469706673582212206eb2e946eb915885e5cd3efa8fafcf44519db96bb2e903ae050c236c8a0525cb64736f6c63430008110033",
  "linkReferences": {},
  "deployedLinkReferences": {}
}